:020000040800F2
:10000000A86C0220A1020008639D010895870108E1
:10001000619D010825370108C7CB010800000000D9
:10002000000000000000000000000000DD010008EA
:10003000E53901080000000039020008C1AC0108E0
:10004000BB020008BB020008BB020008BB0200089C
:10005000BB020008BB020008BB020008BB0200088C
:10006000BB020008BB020008BB020008BB0200087C
:10007000BB020008BB020008BB020008BB0200086C
:10008000BB020008BB020008BB020008BB0200085C
:10009000BB020008BB020008BB020008BB0200084C
:1000A000BB020008BB020008BB020008BB0200083C
:1000B000BB02000821AE0108BB020008BB02000819
:1000C000BB020008BB020008BB020008BB0200081C
:1000D000BB020008BB020008BB020008BB0200080C
:1000E000BB020008BB020008BB020008BB020008FC
:1000F000BB020008BB020008BB020008BB020008EC
:10010000BB020008BB020008BB020008BB020008DB
:10011000BB020008BB0200082DAE0108BB020008AC
:10012000BB020008BB020008BB020008BB020008BB
:10013000BB020008BB020008BB020008BB020008AB
:10014000BB020008BB020008BB020008659D010855
:10015000BB020008BB020008BB020008BB0200088B
:10016000BB020008BB020008BB020008BB0200087B
:10017000BB020008BB020008BB0200080000000030
:10018000BB020008BB020008BB020008BB0200085B
:10019000BB020008BB020008BB020008BB0200084B
:1001A00045910108BB02000835390108BB0200086F
:1001B000BB020008BB020008BB020008BB0200082B
:1001C000BB020008BB020008DFF80CD000F092FC74
:1001D0000048004769170208A86C02202D4B1968D7
:1001E0000868B0E8F04F80F30988BFF36F8F4FF0D5
:1001F000000080F311887047000000000848006884
:10020000006880F308884FF0000080F3148862B61D
:1002100061B6BFF34F8FBFF36F8F00DF00BF00BF2A
:1002200008ED00E0DFF80C00016841F470010160A6
:10023000704700BF88ED00E0EFF30980BFF36F8FD8
:10024000144B1A681EF0100F08BF20ED108A20E929
:10025000F04F106009B44FF0500072B680F311886F
:10026000BFF34F8FBFF36F8F62B62DF0EDF84FF0F5
:10027000000080F3118809BC19680868B0E8F04FE5
:100280001EF0100F08BFB0EC108A80F30988BFF38E
:100290006F8F7047AC000020EFF3058070470000BF
:1002A0000648804706480047FEE7FEE7FEE7FEE710
:1002B000FEE7FEE7FEE7FEE7FEE7FEE7CDAD01085D
:1002C000C90100082DE9F05F0546002092469B46D3
:1002D00088460646814640241BE02846414647465C
:1002E000224600F0EBFA53465A46C01A914110D309
:1002F00011461846224600F0D2FA2D1A67EB010883
:100300004F4622460120002100F0C9FA17EB0009F0
:100310004E41201EA4F10104DFDC484631462A4646
:100320004346BDE8F09F10B5441A0346944209D2F3
:100330008418114403E011F8013D04F8013D521EF8
:10034000F9D210BD40EA0104A40703D009E010C9A6
:10035000121F10C3042AFAD203E011F8014B03F86C
:10036000014B521EF9D210BDD2B201E000F8012BB0
:10037000491EFBD270470022F6E710B513460A4625
:1003800004461946FFF7F0FF204610BD421E12F842
:10039000013F002BFBD111F8013B02F8013B002B80
:1003A000F9D17047421C10F8011B0029FBD1801ABB
:1003B000704730B504460020034600E05B1C9342C2
:1003C00003D2E05CCD5C401BF8D030BD034611F891
:1003D000012B00F8012B002AF9D1184670472DE9AE
:1003E000FE4F804681EA0300C00F0C46009021F0CA
:1003F000004123F00045B8EB0200A94105D2404678
:10040000214690461C460B46024623F0004010430E
:1004100047D0270DC7F30A00C3F30A510290401AD0
:10042000019040286BDAC3F3130040F4801B00985E
:10043000924620B10023D2EB030A63EB0B0B019829
:100440005946C0F14002504600F029FA06460D46D2
:1004500050465946019A00F041FA10EB08006141FC
:10046000002487EA115284EAE7731A4340D0009AC5
:1004700062B3019A012A4FEA075215DC001B61EBB7
:1004800002014FF0004202EA0752CDE90042001C8F
:1004900041F5801132462B4600F0C6FA03B0BDE8A4
:1004A000F08F40462146F9E7001B61EB0201001C7A
:1004B00041F5801300185B412018A2F5001747EBA7
:1004C000030140EAD570B6196D4111E06D084FEA9D
:1004D000360645EAC0754FEA0752001B61EB020180
:1004E000001C41F5801149084FEA300000195141C4
:1004F00032462B4603B0BDE8F04F00F086BA0098B4
:10050000012240000023D0EB020263EBE07300986D
:1005100021464FEAE074B8EB000061EB0401E9E723
:1005200083F000435BE781F0004158E72DE9FE4F7F
:1005300081EA030404F0004421F0004100944FF0EC
:10054000000B23F0004350EA01045ED052EA03049A
:100550005BD0C3F30A54C1F30A552C44A4F2F3341C
:100560000194A0FB0254C1F3130141F48011C3F3C1
:10057000130343F4801301FB024400FB034E840A7F
:10058000970A44EA815447EA8357A4FB0768029517
:100590008D0A05FB07854FEA932C04FB0C542705B5
:1005A000029D4FEA065847EA1637B5EB08056EEB91
:1005B000070C870E920E47EA811742EA8312A7FBC7
:1005C0000201B6EB0B0164EB00042B0D43EA0C3384
:1005D0005E1844EB1C50DA465146E7FB0201C5F3B6
:1005E00013044FEA0B3343EA14534FEA0432019CDD
:1005F00043EA0603A4F10C040294009CCDE900B484
:1006000000F012FA03B0BDE8F08F00200146F9E7D0
:100610002DE9F04D81EA030404F0004B21F0004580
:1006200014464FF0000A23F0004150EA050220D0A2
:1006300054EA01021DD0C5F30A570246C5F313035D
:10064000C1F31300C1F30A5640F4801543F480133C
:10065000A7EB0608101BD64608F2FD3873EB050021
:1006600002D308F1010801E092185B41B8F1000FD4
:1006700003DA00200146BDE8F08D00204FF4801120
:10068000064684460EE0171B73EB050705D3121BC5
:1006900063EB050306434CEA010C49084FEA3000BE
:1006A00092185B4150EA0107EDD152EA030012D0E3
:1006B00082EA040083EA0501084305D0101BAB4120
:1006C00006D20122002306E000224FF0004302E0A0
:1006D0006FF0010253101AEB06004CEB085110EBBF
:1006E0000A0041EB0B01BDE8F04D00F08EB90EB5EC
:1006F000C10F80EAE0700844CA07002140F233438A
:100700008DE80E000A460B4600F08EF903B000BDDE
:100710000EB540F2334102910021CDE900110A46A5
:100720000B4600F081F903B000BD70B5C1F30A5269
:1007300001F000450024C1F3130140F2FF3341F4FE
:1007400080119A4201DA002070BD40F233439A4290
:10075000A2F2334203DC524200F0B0F800E09040D5
:100760002C43F1D0404270BDC1F30A5210B5C1F321
:10077000130140F2FF3341F480119A4201DA002064
:1007800010BD40F233439A42A2F2334203DC52429C
:1007900000F094F810BD904010BD000030B5041E6C
:1007A00071F1000404DB4FF00044404264EB0101AE
:1007B000141E73F1000405DB1C464FF00043524247
:1007C00063EB04038B4208BF824230BD30B5041E88
:1007D00071F1000404DB4FF00044404264EB01017E
:1007E000141E73F1000405DB1C464FF00043524217
:1007F00063EB0403994208BF904230BD01F000430F
:1008000030B421F0004150EA010206D00A0DA2F5F1
:100810006072C1F31301002A02DC30BC0020704773
:10082000440F44EAC104C100E01830BC00EBC250E0
:1008300000F0B4B8A0E8004FF0C040F804DB01B508
:10084000AFF30080BDE8024001C10020704700F115
:100850002C080C4658F8040DAFF3008058F8040D2E
:100860008546200008BF012038E9F00018E9004F54
:10087000704730B50B46014600202022012409E0D4
:1008800021FA02F59D4205D303FA02F5491B04FA49
:1008900002F52844151EA2F10102F1DC30BD202A28
:1008A00004DB203A00FA02F1002070479140C2F1C7
:1008B000200320FA03F3194390407047202A04DBF9
:1008C000203A21FA02F00021704721FA02F3D040C9
:1008D000C2F120029140084319467047202A06DBE6
:1008E000CB17203A41FA02F043EAE07306E041FAFE
:1008F00002F3D040C2F120029140084319467047EC
:100900000FB4002300B589B00CA900910B996FF0CA
:100910000042CB601E4B06931E4B07930423CDE988
:1009200001321D4A089202466B46002000F08EF903
:1009300009B05DF814FB70B586B006464FF0FF3085
:100940000091CDE90101002015460C460490324685
:10095000694604A8FFF7D4FF02460498211825B180
:1009600008B1084600E020462860049800280DD011
:10097000002A02DD0098884208D0081B0094CDE9C7
:1009800001043246694604A8FFF7BAFF06B070BDFD
:10099000850E0008A30E0008190B00080029A8BF47
:1009A0007047401C490008BF20F00100704710B498
:1009B000B0FA80FC00FA0CF050EA010404BF10BC4D
:1009C000704749B1CCF1200421FA04F411FA0CF17A
:1009D00018BF012121430843A3EB0C01CB1D4FEAB3
:1009E00000614FEA102042BF002010BC704700EBAE
:1009F000C35010440029A4BF10BC7047401C4900DC
:100A000008BF20F0010010BC704710B5141E73F130
:100A1000000408DA401C41F1000192185B411A43BE
:100A200001D120F0010010BD2DE9F04D92469B460A
:100A300011B1B1FA81F202E0B0FA80F220329046B0
:100A4000FFF72DFF04460F4640EA0A0041EA0B017A
:100A500053465A46084313D0114653EA010019D0B1
:100A6000C8F140025046FFF729FF05460E465046A2
:100A700059464246FFF713FF084305D0012004E022
:100A800020463946BDE8F08D0020054346EAE07671
:100A90002C4337430A986305E40AA0EB08000022C0
:100AA000FD0A44EA47540A3002D500200146E9E72E
:100AB000010510196941DDE9084500196941BDE8E2
:100AC000F04DA2E770B521F0004303430CD0C1F311
:100AD0000A550024D5EB040564EB0403D617AD1AC0
:100AE000B34102DB0020014670BD201841EB0251EA
:100AF00070BD0000064C074D06E0E06840F00103C1
:100B000094E8070098471034AC42F6D3FFF760FB37
:100B100004AB030824AB0308C0B24FF4F05100F05B
:100B200023BA00002DE9FF4F087883B09946FF28CB
:100B300005D0491C2D2804D00024002008E0002006
:100B40000BE00124F9E700EB800003EB4000491CB7
:100B50000B78FF2BF7D104B14042002302931478A5
:100B600019461D462D2C01D02B2C04D1521C2D2CA6
:100B700013D000240294AA461478FF2C0FD00A2523
:100B8000A3FB057801FB05814FF0000C03FB0C1162
:100B9000521CE3194AEB0101EEE70124EAE7814424
:100BA00053EA010002D019F5C87F06DA0398002144
:100BB000C0E9001107B0BDE8F08F0025AE4E2F460A
:100BC000DFF8B882184600F0E3F9CDE90001B9F189
:100BD000000002DAC9F1000400E004460023A74A3D
:100BE0001AEB030B42EB045A12E0E00707D02A4647
:100BF000334638464146FFF799FC074688462A4661
:100C0000334610461946FFF791FC05460E46641020
:100C1000002CEAD1DDE90001B9F1000F5A46534634
:100C200006DAFFF7F5FC3A464346FFF7F1FC05E02C
:100C3000FFF77CFC3A464346FFF778FC029A0AB17C
:100C400081F00041039AC2E90001B3E72DE9FF4FAB
:100C50001F468DB0D7E901464FF0FF382E2045469C
:100C60004FF000090B90B9696D1C0E988847396ADE
:100C7000824688470028F6D1BAF1FF3F0AD024F413
:100C8000D064002E11DDBAF12B0F08D0BAF12D0F70
:100C90000BD102E0404611B08DE744F48064B9699D
:100CA0006D1C0E9888478246761E6946600501D500
:100CB0002D2000E02B208DF8000001F1010B0DF13B
:100CC000200809E0B9696D1C0E98884782460F9884
:100CD00044F40074761E0560002E02DDBAF1300F78
:100CE000F0D00B998A453ED144F0800406E00F997C
:100CF000681CA9F1010944F400740860B9696D1C0D
:100D0000761E0E98884782463028F0D02BE00B994B
:100D10008A4505D1200603D444F08004761E18E0ED
:100D200050461DF0A1FC08B30DF11301761E44F4EA
:100D300000748B4508D2AAF130000BF8010B200695
:100D400007D5A9F1010003E0200602D409F1010052
:100D50008146A00502D50F99681C0860B9696D1C11
:100D60000E9888478246002ED1DC53E0002E51DDDC
:100D7000BAF1650F02D0BAF1450F4BD1A00549D5A4
:100D8000B9696D1C24F44074761E0E98884782461B
:100D9000002E0CDD2B2804D0BAF12D0F07D144F41E
:100DA0008074B9696D1C0E9888478246761EE005EE
:100DB00001D52D2100E02B2108F8011BCDF82C8056
:100DC00021E00DF12901761E44F4007488450CD20F
:100DD000AAF1300010F0FF0088F8000002D10B9952
:100DE000884509D908F1010806E0E00501D5244845
:100DF00001E042F20F708146B9696D1C0E98884778
:100E000082460F980560002E04DD50461DF02CFC34
:100E10000028D6D1F9690E988847FF208BF800008A
:100E200088F800000020069007904B466A4608A903
:100E300006A8FFF777FEA00502D46FF001002AE7AD
:100E400014F0240F0AD0E00714D1DDE90612386847
:100E5000031D3B600068C0E900120BE0DDE90601FC
:100E6000FFF7CCFC0146E00704D13868021D3A6068
:100E70000068016028460EE7000014400000F03FC3
:100E8000F1D8FFFF426842B1016811F8013B23B17C
:100E9000521EC0E90012184670470121C160881E29
:100EA000704742685AB1C368016843B983688B428E
:100EB00005D0491E521CC0E90012002070474FF0B7
:100EC000FF3070472DE9F04D00231A461B1A8A4166
:100ED00003DB00200146BDE8F08DC1F30A52C1F3E7
:100EE000130141F480154FF0000BD10702D1001817
:100EF0006D41521E0027044640F2FF11384601EBB7
:100F0000620A3E468046024600204FF48011FFF7F9
:100F1000D5FCC2197141BB1846EB0100B4EB030CC0
:100F200075EB000C04D3E41A65EB000517460E467A
:100F3000241908F101006D4180463428E3DDF919D8
:100F400046EB0600091BA84103D24FF0FF321346BF
:100F500001E0002213461BEB070046EB0A51BDE8F7
:100F6000F04DFFF752BD00007F2801D9002208E0B4
:100F7000064A02EB5002C007127800D1120902F0B3
:100F80000F020120904008407047000048210308EC
:100F90000EB540F2334202920022CDE90022134600
:100FA000FFF742FD03B000BD70B58C1810F8015B6F
:100FB00015F0070301D110F8013B2A1106D110F8F2
:100FC000012B03E010F8016B01F8016B5B1EF9D1F6
:100FD0002B0705D40023521E0DD401F8013BFAE77C
:100FE00010F8013BCB1A921C03E013F8015B01F8E7
:100FF000015B521EF9D5A142D8D3002070BD00007C
:1010000070B5456882B004460146284608F098FB52
:1010100068B123680F2B59D00BDD282B45D0B3F5D1
:10102000107F3CD0112B49D0204609F00BF802B0BC
:1010300070BD0B2B20D00E2BF6D1E3681A685968CF
:101040000D2A53D0202A31D1002928464FF480712F
:101050007DDD08F065FC284601F008FD02AB846ADE
:1010600043F8040D184601F055FEA207DFD52846C7
:1010700001210AF02DFBDAE7284602AD01F0F6FC6B
:1010800003466830019301F0CFFA55F8040D0321AF
:101090006C3001F0EFFA284601F03CFEC4E7324B19
:1010A000214628461B689847C1E7E368002BBBD15F
:1010B00028464FF4807108F027FBB5E72B4B1B68DF
:1010C000002BB4D0214628469847B0E7284601F0C7
:1010D000CDFC034602A840F8043D5B6E1C6801F09D
:1010E00019FE002CA3D02846A047A0E70029DDDD8B
:1010F0004FF48071284608F013FC02AC284601F03A
:10110000B5FC866A44F8040D204601F003FEB107E1
:1011100003D5012128460AF0DBFA4FF480712846F6
:1011200008F0F2FA284601F0A1FC034620461E8E84
:101130009C6A019301F0EEFD304604F0F3FFA30733
:101140007FF575AF284602210AF0C2FA6FE708F072
:10115000DBFA284601F08AFC034602A89C6A1E8E30
:1011600040F8043DE6E700BFA0010020E85102205E
:101170002DE9F04FB0F90A6087B0B0F90C708B46DA
:1011800085691644B0F90E801F44B0F910A00446DA
:10119000B0F908904C3502F0F9FEDFF8CCC04FF002
:1011A000000E4246CDF800B039463046039553460E
:1011B000CDF808C0CDF804E008F048FE804628B914
:1011C00005F08AFA404607B0BDE8F08F01F04EFC0A
:1011D000244F49460DF11809102205903E1D08F0D4
:1011E000A3FC59F804ED0FCE0EF134050FC50FCE58
:1011F0000FC596E80F0085E80F007B6B4846CEF8D8
:10120000643001F087FD7B6B40465B68984705F0D2
:1012100063FA656802F0BAFE404601F027FC034617
:1012200004A89C6E0493059401F074FD2946484679
:1012300006F020FC0028C3D0059B9C4209D0404604
:1012400001F014FC059A034604A89A66049301F081
:1012500061FD404609F0B4FE05F03EFA404607B095
:10126000BDE8F08FA001002001100008974A8168B6
:1012700043682DE9F041044688B052F82160122BF2
:1012800040D8DFE803F0B03F3F3F3F0A973F3F3F82
:101290003F3F3F3F3F3F3F3F4300F569002D40F058
:1012A000B580371F57F8040F04F0B8FE04F114019D
:1012B00020690EC928445B1B521B2944013502F0EA
:1012C00089FB022DEED162693169E3690191911CBC
:1012D000F76813442069A2695B1028440097521BE9
:1012E00002F072FAE1696269B0698B1E1144A26969
:1012F0000190491020697669521B013128440096FB
:1013000002F062FA002008B0BDE8F081006801F048
:10131000ADFB876E0490002F00F0D080A368B0F979
:101320005C80002B00F0C880032B14BF0023022335
:1013300000EB8303406D08AC1D6C04F087FE28466B
:1013400004F06CFE06A802F0A1FCB28BBDF81810E8
:1013500006A8BDF81C301144BDF81A509A1ABDF801
:101360001E30ADF81810023554F8101D023BADF8D0
:101370001C20B1F96020B1F95E10ADF81E30ADF857
:101380001A5004F0A1F9204608AC01F0C3FC022079
:1013900004F0B0FE384601F069FB06A9424644F865
:1013A0000C0D02F00FF9204601F0B4FC002008B04B
:1013B000BDE8F081006801F059FB049020680BF053
:1013C00007FCB8B9049B5D6F05B9DD6E04A801F098
:1013D000A1FC0023284621681A4601F0E9FF0020FD
:1013E00008B0BDE8F08100680AF002FC002008B0F7
:1013F000BDE8F081A368002B64D1049A136F002B21
:1014000014BF6C23682313445D68DFE7B268B046FD
:10141000C3690027039271688269029158F8040930
:10142000009561690190206905F05AFE58F8040F93
:1014300004F0F4FDF369A26921696069D21A1944C4
:10144000384402F09BFAF369A2692169E069D21A73
:101450001944C01B02F092FAF369E26961692069DC
:10146000D21A1944384402F0FDFAA069F369E2691E
:10147000C01B61690137D21A194402F0F3FA022F36
:10148000D4D1B06804F0CAFDF16922696569901C85
:10149000E3690A445B1A2944013A02F03BFBF16913
:1014A000A0696569E369821E401A5B1A294401300C
:1014B00002F030FBF56906E7012339E704A801F0E3
:1014C00029FC1FE7049BDD6E80E700BF68A10308CD
:1014D0002DE9F04F446805468BB020460BF078FBB1
:1014E00029460646204608F02BF9002838D02B68FC
:1014F0000F2B60D037DC0B2B4AD00E2B55D1002E92
:1015000053D0EB685A68002A4FDDD3F80080A8F169
:101510000903192B06D80121C34A01FA03F31A4023
:10152000002A42D1E4B102F031FD0AAE204601F0BA
:101530009DFA0346876D46F8180D304693F854A07F
:10154000D3F83490DD6C01F0E5FB002F00F0E28071
:1015500041462046B847204609F032FD05F0BCF868
:101560000BB0BDE8F08F40F21312934228D0B3F5D0
:10157000107F1AD1EB68002B00F09A801A7A002AAB
:1015800052D0002C41D1204601210AF0A1F80CE0F4
:1015900020460AAC01F06AFA0346343044F8043DB0
:1015A00001F042F8204601F0B5FB284608F04AFD5C
:1015B0000BB0BDE8F08F2046012110F02BFACFE7E9
:1015C00020460AAE0AF0B4F9204601F04FFA03466D
:1015D00046F8040D304693F8562082F0040283F852
:1015E000562001F097FB0021204610F013FA204608
:1015F00001F03CFA03460021D0F8840009930AF078
:1016000063F9304601F086FBCFE71E6802F0BEFCAE
:10161000204601F02BFA436B079053B907A801F05D
:1016200079FB05F059F8AEE7204602210AF050F8A0
:10163000BBE7184601F01AFA079B0690986E04F073
:1016400005FD8046204609F0BDF80746069802F0E1
:101650007BFB079A8146136E03F00303012B00F016
:10166000E781022B40F0DD813B1A013348BF013393
:10167000A6EB6306069806F03FF8002E0746C0F278
:10168000F881B14519DA204601F0F0F9436B089072
:10169000002B40F0D38108A801F03CFB06A801F024
:1016A00039FB404604F0D2FC204609F089FCB5E73E
:1016B000204603210AF00CF877E7024631460698E7
:1016C00005F09AFF0646204601F0D0F9436B0890DA
:1016D000002BE0D0184626EAE67601F0C7F909901B
:1016E00006F00AF80899B1F9383091F85470CA6CCC
:1016F000002F18BF013BB342A8BF33469842A8BF92
:101700001846824200D0C864002309A80B6501F086
:1017100001FBC0E7A8F10803162B00F2E680DFE822
:1017200013F0A000E400E400E400E400E400E400BE
:10173000E400BC00850076004800E400E400E4001A
:10174000E400E400E400E400E400E40038001700F2
:10175000204601F08BF903460AA85D6B40F8083D6E
:10176000DF6C01F0D7FA002D3FF4F5AE284601F00A
:101770007DF939460646099004F084FE0546304658
:10178000FEF710FE8542C0F0E28109A801F0C2FA1E
:10179000E1E6204601F06AF9BAF1010F0346049030
:1017A00040F08781002280F85420304601F0B2FAE0
:1017B000D1E6B9F1000F3FF4CEAE484601F056F93C
:1017C00006462946099004F05DFE0644304604F0C2
:1017D00005FE002305468DF82230ADF82030013D8E
:1017E00004F01CFE0746ADB2284604F017FE8742FF
:1017F000CBD1294608A804F0DFFD08A93A463046B7
:10180000FEF791FD0521204609F062FFBDE7204665
:1018100001F02CF9436B0890002B40F0A88108A838
:1018200001F078FA97E600BF13000403B9F1000F46
:101830003FF491AE484601F019F906462946099051
:1018400004F020FE0644304604F0C8FD002305469F
:101850008DF82230ADF82030013504F0DFFD074669
:10186000C1E7002D3FF477AE204601F0FFF8436B4F
:101870000890002B40F0948108A801F04BFA204614
:1018800001F0F4F8034608A85D6BDF6C089301F0E3
:1018900041FA002D3FF45FAE68E7204601F0E6F81C
:1018A000436B0890002BBAD0184601F0DFF809907E
:1018B00005F022FF089A6B1EB2F9381023EAE37391
:1018C00092F85460D56C002E18BF01398B42A8BF26
:1018D0000B469842A8BF184600238542136518BFDF
:1018E000D06409A801F016FA99E7B8F11F0F7FF745
:1018F00032AEBAF1000F40F00881204601F0B6F890
:10190000B0F9383081460590002B07DD406B002888
:1019100040F06B8107469F4280F263811FFA88F393
:101920000DF128091E46019359F8143DDB6C484619
:10193000039301F0EFF9304604F070FD8346204632
:1019400001F094F8436B0690002B40F08F811E4607
:101950000AA80BEB060350F8102D0133568F9E1B7F
:1019600001F0D8F9002E40F37E812046103601F0B8
:101970007DF80346B0F83A800AAFD3F834A0B044FB
:1019800047F8080D384601F0C5F94146504601F0C8
:1019900081F8029000283FF4DEADBAF1000F00F0AC
:1019A000548109AE204601F061F8029A0346384698
:1019B0000893A3F83A805A6301F0ACF9204601F08D
:1019C00055F803464846D3F83480059301F0A2F950
:1019D000404601F04BF880460399099004F052FD0F
:1019E00080444046FEF7DEFC4146421C08EB0B00FB
:1019F000FEF799FC0199404604F0DEFC304601F008
:101A000089F90521204609F063FE204601F02EF8F1
:101A1000436B0890002B40F0F680384601F07AF9CD
:101A200099E5536ED16A5A1C0B681344F61A21E6E5
:101A3000536E3F1A0133FB1AF61A1BE6184627EAC3
:101A4000E77701F013F8099005F056FE0899B1F90F
:101A5000383091F85460CA6C002E18BF013BBB426D
:101A6000A8BF3B469842A8BF184682427FF44BAEBF
:101A70004AE6204600F0FAFF436B0890002B3FF443
:101A80000AAE184600F0F2FF099005F035FE0899FD
:101A9000B1F9383091F85460CA6C002E18BF013B80
:101AA00003EAE3739842A8BF184682427FF42BAE44
:101AB0002AE60122204683F8542000F0D7FF436B2A
:101AC0000890F3B1184625EAE57500F0CFFF0990BC
:101AD00005F012FE089AB2F9383092F85470D16CC1
:101AE000002F18BF013BAB42A8BF2B469842A8BFAE
:101AF000184600238142136518BFD06409A801F07D
:101B000009F908A801F006F94FE60AAF204600F0EF
:101B1000ADFF466B034647F8080D3846D3F84C90A6
:101B200001F0F8F8002E3FF4E8AE304600F09EFFDA
:101B300049460746099004F0A5FC06463846FEF7DC
:101B400031FC86421CD309A801F0E4F8D5E63544FF
:101B5000284604F053FC29182846FEF737FC09A84C
:101B600001F0D8F80521204609F0B2FDF3E418464B
:101B700000F07CFF099005F0BFFD089A6B1C9BE606
:101B80003E44304604F03AFC31183046FEF71EFC65
:101B900009A801F0BFF80521204609F099FDACE63F
:101BA000184600F063FF099005F0A6FD089A6B1E29
:101BB000B2F9381092F8546023EAE373D56C002E22
:101BC00018BF01398B42A8BF0B469842A8BF1846E0
:101BD00000238542136518BFD06409A801F09AF864
:101BE0004AE605A801F096F8B5E40AAE00F03EFF1B
:101BF00046F8040D05F080FD0746304601F08AF8EE
:101C0000B9F9383087E6184600F030FF099005F042
:101C100073FD08996B1C91F854E0B1F9385023EA30
:101C2000E373CA6CBEF1000F18BF013DAB42A8BF01
:101C30002B469842A8BF1846002390420B6518BF58
:101C4000C864304601F066F8E7E600F00FFF0AAE20
:101C50000D4B514646F8040D42461B6898473046E6
:101C600001F058F89EE609AE08AFA7E618460AAF9D
:101C700000F0FCFE47F80C0DFEF794FB06463846D4
:101C800001F048F864E600BF980100202DE9F04F0C
:101C9000B0F90C708BB0B0F90A608B4685691F44AF
:101CA000B0F908301644B0F90EA00446B0F910900F
:101CB00060350593D0F8148002F068F9DFF83CE154
:101CC0004FF4805CCDF800B03946304603954B4662
:101CD0005246CDF808E0CDF804C008F0B7F830B9A6
:101CE000002704F0F9FC38460BB0BDE8F08F07463A
:101CF00000F0BCFE05991022079007F015FF3D4E3D
:101D00004FF0010CDDF81CE00FCE0EF160050FC5A1
:101D10000FCED6F8009018F1010618BF0126B8F1D1
:101D2000000F0FC5C5F800908EF855C08EF888607A
:101D30005BDD0FFA88F808EB0C050023AEF838805D
:101D400007A80AAEAEF83A30CEF8343000F0E2FF21
:101D5000384600F08BFE0346428FD3F8348015449A
:101D600046F8080D304600F0D5FF2946404600F001
:101D700091FE8246A8B3B8F1000F23D00DF12409DB
:101D8000384600F073FE034630465D87C3F834A042
:101D9000089300F0BFFF04F09FFC648A02F0F6F89D
:101DA000384600F063FE099018B10466384609F021
:101DB00007F9484600F0AEFF04F08EFC38460BB041
:101DC000BDE8F08F00F052FE0DF128090A4B4146A4
:101DD00049F8040D2A461B689847484600F09AFFC8
:101DE000CEE7384608F05EF97AE709254FF0080893
:101DF000A3E700BFD801002098010020D1140008FB
:101E000000B9704770B5044682B00D4602F0BEF8C6
:101E1000204602AE00F02AFE03468566204646F8BC
:101E2000043D09F0CDF8304600F074FF04F054FC96
:101E300002B070BD00B97047AFF300802DE9F04FDC
:101E400004468BB00F4602F0A1F80AAE204600F01F
:101E50000DFE0246456B46F8180D3046B2F9388043
:101E600000F058FF002F00F0AA80002D7FD1A94676
:101E70003846454605F040FC8045A8BF0546384633
:101E8000294604F0FFFA00F10108204600F0EEFDBB
:101E9000436BC9EB080A0690002B59D19946D144EF
:101EA000438F06A809F10109C3EB090900F032FFCD
:101EB000B9F1000F25DD204609F1100900F0D6FD2B
:101EC0000346428F0DF1280AD3F834B091444AF802
:101ED000080D504600F01EFF4946584600F0DAFD56
:101EE000019068B3BBF1000F56D0204600F0BEFD54
:101EF000019B02465046A2F83A905363089200F0C4
:101F000009FF204600F0B2FD0346406B049300F049
:101F1000ADFD324B4246394605901B689847059AFD
:101F20000023904408F8013C049BB3F93820DD6499
:101F3000AA422AD005A800F0EDFE304600F0EAFEE5
:101F4000204609F03DF804F0C7FB0BB0BDE8F08F68
:101F500018460DF1280B00F089FD4BF80C0DFEF72B
:101F600021FA8146584600F0D5FE069897E72846A4
:101F70000AAD00F07BFD45F8140DFEF713FA00F1F1
:101F80000109284600F0C6FE72E793F85420012AA2
:101F9000D0D1013DDD64CDE700F068FD0AABDFF88C
:101FA00040E0594643F8040D4A46DEF800B002937B
:101FB0000393D847029B184600F0ACFE95E72046F5
:101FC00000F054FD03463430049300F02DFB049BD5
:101FD00030465F87DF6400F09DFEB1E7940100208A
:101FE0009801002000B9704730B5044683B00D4613
:101FF00001F0CCFF204600F039FD019018B10566D4
:10200000204608F0DDFF01A800F084FE04F064FB28
:1020100003B030BD204B70B51E6801F0B7FF1F4CF8
:102020000025304606F0BAFF04F056FB1C4B1E6834
:1020300001F0ACFF304606F0EBFF04F04DFB01F081
:10204000A5FF012223681A7604F046FB01F09EFFEB
:1020500023689D8504F040FB01F098FF23685D85AF
:1020600004F03AFB01F092FF284607F003F804F071
:1020700033FB0C4B1D6801F089FF236805B1DD615E
:1020800004F02AFB01F082FF236800229A76BDE863
:10209000704004F021BB00BF780100207C010020CB
:1020A0007401002070010020014B83E80300704799
:1020B00070500220014B83E80300704778500220E3
:1020C000014B83E80300704780500220704700BF37
:1020D000704700BF2DE9F04F5C4E8DB03368DA6970
:1020E000B3F92250D469B4F80CB0834500F297805C
:1020F000E1898142C0F093802168CBEB000B08910D
:102100004FF0FF310A91BBF1FF3F00F0828092F85F
:102110001880A27CB3F92A10B3F9249018FB02F3BB
:10212000084607911F4694F810A006F0A3FFD6F8C2
:1021300000E008994346DEF838C05246099007FB94
:102140000B10DEF81CE00B97012704904946CDF8F0
:1021500014C0284694F812C00297CDF80CC09EF81F
:102160001BC0DFF8E8B0CDF804C09EF81AE0CDF847
:1021700000E006F0BFF80A9F7B1C25D0079941F0CC
:10218000020006F077FFDBF800100B9A4346089830
:10219000D1F838C002FB0700D1F81CE00127CDF8C8
:1021A00014C00490524694F812C04946029728463B
:1021B000CDF80CC09EF81BC0CDF804C09EF81AE004
:1021C000CDF800E006F096F83368DFF88080DB6930
:1021D0005A7E1B7E9A4215D9079B022B12D083F0A0
:1021E000040006F047FFD8F800302846DB691F7E60
:1021F000D97E9A7E5B7E07FB01910AFB02524B441B
:1022000006F080FA9DF8240006F034FF3368B3F935
:102210002250627C15445D840DB0BDE8F08FA1684A
:102220000029F6D00F88B842F3D3B1F802E0864512
:10223000EFD3C01B4968676880B2089701EB80073D
:1022400031F920B0B7F902100A915CE77C01002057
:10225000044B1B68DB69DB6909B11A7C0A60587C96
:10226000704700BF7C01002002230B80704700BF35
:10227000C3699A898A4202D8DA898A4211D2986857
:1022800018B10388994201D20020704742888A42DF
:10229000FAD3C91A436833F82100C043C0F3C030F1
:1022A00070470120704700BF2DE9F04F3A4D89B0CB
:1022B0002B68DA69B3F92A90D36943B11A8890423E
:1022C00002D35988814205D29B68002BF6D109B010
:1022D000BDE8F08F841AD3F80480484608EBC406A2
:1022E00096F802B006F0C6FE8246286818F8342038
:1022F0004FF0010EC769D0F838C0B0F92410B0F91A
:1023000022003B7E0790CDF814C07068CDF80CB069
:102310000490CDF808E097F81BE00798CDF804E0AA
:10232000BF7E009705F0E6FF2B68DA69537E177EC3
:10233000BB4223D9B9F1020F07931FD092F81BB00B
:1023400001F0A8FC814601F06FFC03F067FE124B20
:1023500018F834E01868079BC169B0F92240CA7EBA
:10236000B0F9241020460EFB02420BFB03130BFBBB
:10237000071106F0C7F9484603F050FE504606F034
:1023800079FE2B687178D8695A8C807E00FB012217
:102390005A8409B0BDE8F08F7C010020114B1B6806
:1023A00070B4DD69EB6943B11A88904202D35C884E
:1023B000844205D29B68002BF6D1184670BC70474A
:1023C000821A5E68AC7E06EBC2035B7813FB04F0F6
:1023D0000029F3D016F8323014FB03F370BC0B6005
:1023E000704700BF7C01002001230B80704700BFB5
:1023F000C06950B103888B4202D843888B4203D214
:1024000080680028F6D17047012070472DE9F04719
:10241000244F3D68002D3FDD234EC5EB4515DFF809
:102420008C804FF0000A3468D8F8009004EB8505E2
:102430000C340C35A4F10803742249461846FDF704
:1024400072FF221F2063A06344F80CAC6263E46057
:102450007C34A542EED10024254603E082B13A68DF
:10246000954213DA11F052FC336801351A591919E3
:102470007C349042F2D10431C8F80010BDE8F087F6
:1024800008600431C8F80010BDE8F087194604312F
:10249000C8F80010BDE8F087034BDFF8108019681A
:1024A000E9E700BF800100207C5102207C01002070
:1024B000F8B5184F184B3846184E40F80C3F05F049
:1024C000C5FA3468C4EB4414A400204600F004F9B3
:1024D000134B224600211B68386098474FF0FF33AA
:1024E000736011F019FC3368002B0FDD00242546C2
:1024F00003E062B133689D4208DA11F007FC3B68E3
:1025000001351A5923447C349042F2D1F8BD186049
:10251000F8BD00BF7C51022049180108800100204D
:102520009801002000B9704710B5044601F02EFD57
:1025300020460AF041FF044604F0CEF8204610BDC4
:10254000F8B5054601F022FD25B9002404F0C4F8D1
:102550002046F8BD01F01AFD28460AF02DFF04467A
:1025600004F0BAF8002CF0D0144E2A46144F002183
:10257000F069736B013003EBC405F06113F83400AC
:10258000013003F834006D683B6805F10800984796
:102590002968726B12F83130012B01D9F06930B91A
:1025A000013B02F8313004F097F82046F8BD0138BD
:1025B000013BF06102F83130F5E700BF985302208B
:1025C0009801002021F00301014B83E803007047CC
:1025D0008850022000B9704770B50D4C054601F0D7
:1025E000D5FCEE00636B3344596848680AF036FD49
:1025F0006368626B0021606A013316446360706037
:1026000002F835106562BDE8704004F065B800BF9F
:102610009853022028B1034AD36B036003B158607A
:10262000D063704798530220F8B5054601F0AEFC20
:102630002C68B4B10E4E01F0A9FCE700736B3B446B
:10264000596848680AF00AFD7368726B0020716A65
:10265000013317447360796002F83400746204F047
:102660003BF800232B60BDE8F84004F035B800BF0C
:102670009853022000292BDD2DE9F04700258A46DA
:10268000041F144FA94601F081FC54F8046F013572
:10269000B6B101F07BFC7B6B4FEAC6084344596836
:1026A00048680AF0DBFC7B68796B7A6A01338844FE
:1026B0007B60C8F8042001F836907E6204F00CF8C4
:1026C000C4F8009004F008F8AA45DCD1BDE8F08712
:1026D000704700BF98530220F8B58B4E044696F819
:1026E0002830002B2FD00334356CF26B24F0030418
:1026F0000434A54238BF254662B152F8043C144662
:102700009D4204D114E054F8043C9D4210D024684A
:10271000002CF8D1F368B46B1C4454F8041C611A03
:102720000B68002B68D14B689D426FDD002408E0E8
:1027300023680BB161685960616801B10B60A24206
:1027400056D02046F8BD714B01219A6886F82810B2
:1027500058680AB982089A605A27102220254FF03B
:10276000400E3762802732644FF48072B5644FF4B4
:1027700000751968C6F850E04FF4806EB7654FF4E5
:10278000006732664FF48052B5664FF40055A1F1F0
:102790001403C6F870E0B7674FF4804EC6F8802087
:1027A0004FF40047C6F888504FF480324FF400359C
:1027B0000344C6F890E04FF4802EC6F898704FF4AA
:1027C0000027C6F8A0200222C6F8A8500125B16350
:1027D0007363C6F8B0E03261F060C6F8B8705D604F
:1027E000756275600AF03AFC0DF07EFA35637AE79F
:1027F00023682046F363F8BD00200FF0B9FC54F8BD
:10280000041C611A0B68002B90D18CE7581BD6F87A
:10281000B8703D4A041DBB420C4472D2D2F8B0706D
:10282000BB426CD2D2F8A870BB4266D2D2F8A0707C
:10283000BB4260D2D2F898709F425AD9D2F89070B9
:10284000BB4254D2D2F88870BB424ED2D2F88070CC
:10285000BB4248D2926F934243D2376F2A4ABB425F
:102860003DD2976EBB4238D2176EBB4233D2976DC2
:10287000BB422ED2176DBB4229D2976CBB4224D2E9
:10288000126C93420CD2F2687369521B2B44F260B3
:10289000736110B944F8045C53E70AF0DFFBF9E711
:1028A00000223768D1F808E0FF1ACB683760BEF124
:1028B000000F01D0CEF8043013B1C3F800E0E2E716
:1028C00006EBC202C2F844E0DDE70122E9E702229A
:1028D000E7E70322E5E70422E3E70522E1E7062232
:1028E000DFE70722DDE70822DBE70922D9E70A2232
:1028F000D7E70B22D5E70C22D3E70D22D1E70E2232
:10290000CFE70F22CDE700BF985302208850022066
:10291000F8B54A4C94F82830002B3DD0D4F8BC30A0
:10292000464A3BBBD2F8B43023BBD2F8AC300BBB29
:10293000D2F8A430F3B9D2F89C30DBB9D2F8943095
:10294000C3B9D2F88C30ABB9D2F8843093B9D36F15
:1029500083B9536F73B9E36E63B9536E53B9D36DD3
:1029600043B9536D33B9D36C23B9536C13B96FF0BA
:102970000B00F8BD9B68002BF9D0002201E09B689A
:1029800043B159681046914201D90A4608469B68EE
:10299000002BF4D10C38F8BD294B01219A6884F83A
:1029A000281058680AB982089A605A2610222025F1
:1029B00040272662802622644FF48072A5644FF47B
:1029C0000075196827654FF48067A6654FF40066A7
:1029D00022664FF48052A5664FF40055A1F114030E
:1029E0002767A6674FF48047C4F880204FF400465D
:1029F000C4F888504FF480324FF400350344C4F8D3
:102A000090704FF48027C4F898604FF40026C4F803
:102A1000A0200222C4F8A8500125A16363632261AB
:102A2000E060C4F8B070C4F8B8605D60656265606D
:102A30000AF014FB0DF058F925636FE79853022054
:102A40008850022030B1044B5B6B03EBC00043683D
:102A500058680C38704700BF98530220024A9369A7
:102A600001339361704700BF98530220084AD1692F
:102A7000536B013110B4D16103EBC00413F8302063
:102A8000013203F8302060685DF8044B083070476D
:102A90009853022009B9084670472DE9F843884643
:102AA000064601F073FA40460AF086FC054603F03C
:102AB00013FE002D66D0002E64D0344CF700636BFB
:102AC0003B445B685B68A3F10C008045A8BF80466F
:102AD00001F05CFA636BE169424613F8350003EBE1
:102AE000C508023103EB070C0130DFF8A4E003F85E
:102AF0003500D8F80480E16113F8361008F10800B9
:102B0000013103F83610DCF80490DEF8003009F1EA
:102B100008019847D8F80010636B13F83120012A98
:102B200003D9E06908B10138E061013A03F83120C6
:102B3000D9F8001013F83120012A06D9E069DFF82E
:102B40004CE010B10138CEF81C00013A03F83120F6
:102B500001F01CFA636B3B44596848680AF07EFA3E
:102B60006368626B0020616A0133174463607960B7
:102B700002F83600666203F0AFFD03F0ADFD2846B3
:102B8000BDE8F8832846BDE8F88300BF98530220CB
:102B900094010020F8B5584C01F0F8F994F8283069
:102BA000002B57D0D4F8BC30534A9BBBD2F8B4307A
:102BB00083BBD2F8AC306BBBD2F8A43053BBD2F895
:102BC0009C303BBBD2F8943023BBD2F88C300BBB8B
:102BD000D2F88430F3B9D36FE3B9536FD3B9E36E4E
:102BE000C3B9536EB3B9D36DA3B9536D93B9D36C55
:102BF00083B9536C73B96FF00B034049DA1781FB4B
:102C00000313C2EB6313246A04FB03F403F064FDB3
:102C10002046F8BD9B68002BF5D0002201E09B68A0
:102C200043B159681046914201D90A4608469B684B
:102C3000002BF4D10C38B0F5800F0346DDD8226AA2
:102C40002E4B02FB00F0A3FB00235C0903F044FDC4
:102C50002046F8BD2A4B01219A6884F8281058684C
:102C60000AB982089A605A26102220254027266237
:102C7000802622644FF48072A5644FF400751968B1
:102C800027654FF48067A6654FF4006622664FF40F
:102C90008052A5664FF40055A1F114032767A6677B
:102CA0004FF48047C4F880204FF40046C4F88850A1
:102CB0004FF480324FF400350344C4F890704FF461
:102CC0008027C4F898604FF40026C4F8A0200222A0
:102CD000C4F8A8500125A16363632261E060C4F8D1
:102CE000B070C4F8B8605D60656265600AF0B6F9FE
:102CF0000CF0FAFF256355E7985302201F85EB512E
:102D000088500220024A9369013B9361704700BFDB
:102D10009853022003680B4A30B4044653F8085C09
:102D2000506B10F83530012B03D9D16909B1013945
:102D3000D1610022013B00F835301046226030BCE2
:102D4000704700BF98530220034B5B6B03EBC0003E
:102D500040680830704700BF9853022050F8080CB4
:102D6000704700BF2DE9F04114460646884601F041
:102D70000DF9204600F09AFFE8B9A7001B4D3B195A
:102D800005EB8303DA68B24206D11B69434503D1E0
:102D9000BDE8F04103F0A0BC3B1905EB8303586983
:102DA000D0B93C4405EB8404E660C4F81080BDE86B
:102DB000F04103F091BC0D4B04EB840403EB84045D
:102DC00063689A685968C2EB0802711A03F062F9E5
:102DD000BDE8F04103F080BC5B689A685968C2EBBB
:102DE0000802711A02F0B8FDDBE700BF2853022089
:102DF000C3B2CAB29A1A92B210B414B2002C1EDB3B
:102E0000C1F30722C0F307239B1A9BB21AB2002A10
:102E100012DB090C02FB02F2C1EB104104FB04209F
:102E200089B20CB2002C01DA49420CB2A1B25DF8B1
:102E3000044B01FB010070475B421AB2E9E75242C2
:102E400014B2DDE700212DE9F041084682B000F020
:102E5000C7FF184F01F09AF8042006F00BF9164B43
:102E600043F6FF763D461B69804634466846DA6C79
:102E70001B6D174416441D441C44ADF80070ADF89A
:102E80000460ADF80250ADF8064009F0ABFA48B165
:102E9000234632462946384605F034FC09F034F919
:102EA0000028F5D1404606F0E5F803F015FC02B025
:102EB000BDE8F08101C0FFFF6C0100202DE9F04169
:102EC00082B016461C4607460D4601F05FF8042006
:102ED00006F0D0F8134B804668461B69DA6C1B6D10
:102EE000174416441D441C44ADF80070ADF804604E
:102EF000ADF80250ADF8064009F074FA48B1234627
:102F000032462946384605F0FDFB09F0FDF8002859
:102F1000F5D1404606F0AEF803F0DEFB02B0BDE8A6
:102F2000F08100BF6C0100202DE9F04182B0B0F9C2
:102F30000070B0F90260B0F90450B0F9064001F039
:102F400025F8042006F096F8134B804668461B6966
:102F5000DA6C1B6D174415441E441C44ADF8007018
:102F6000ADF80450ADF80260ADF8064009F03AFA49
:102F700048B123462A463146384605F0C3FB09F0DE
:102F8000C3F80028F5D1404606F074F803F0A4FB1E
:102F900002B0BDE8F08100BF6C0100202DE9F047D0
:102FA000044682B00D461646002B37D09A4600964E
:102FB00051460B9B204626680A9AB047074618B927
:102FC000384602B0BDE8F08707F01CFB618A8046F6
:102FD000384606F0A5FC013D384608F075FE40462F
:102FE00008F072FE002D1DDD4FF0000903E008F02F
:102FF0006BFE013D16D054F81C6F0023CDF80090F5
:10300000414620461A46B04706460028EFD13846CA
:1030100007F048F8304602B0BDE8F08707F000FB43
:103020008246C4E740461D2108F0C8FCBAF1FF3FC4
:10303000C6D000F0ABFF07F079FB60B9BA4502D00B
:10304000384608F055FD03F047FB384602B0BDE8AE
:10305000F0870028F4D0FFF777FE80698742F8D127
:10306000F1E700BF012B17DC2DE9F04107461C20DA
:1030700090460D461E46FFF72FFB0446D0B16DB1BA
:10308000056100232046A661A4F81480E760236050
:103090006360A360BDE8F08100207047074B53F8E0
:1030A00026200AB9EDE71A461368002BFBD11369F5
:1030B0002361E6E70020BDE8F08100BF74540220E0
:1030C000012B3BDC2DE9F84381461C2090460F463E
:1030D0001E46FFF701FB054600287FD0414A002F1E
:1030E00031D00023DFF804E152F8264003609EF857
:1030F000001007618E428661A0F81480C0F80C9021
:103100004360836002DB731C8EF80030002C5DD0BE
:1031100021464C68002CFBD1D9F80000CB681B6815
:1031200083422CDD09680029F8D148B92E4B1636A8
:1031300028461A6842F82650BDE8F88300207047F8
:103140002846BDE8F88352F82610002930D00846FA
:1031500000E018460368002BFBD10069DFF88CE023
:103160002B6028619EF80000AE618642A5F81480AD
:10317000C5F80C906B60AB60CBDB0C46C3E70AD0A4
:103180004B6843B31D606B608D4214BF0B46002338
:103190004D602B60C9E7B8F1010FF1D104E0DC68A4
:1031A000194623688342EBDB0B68002BF7D1E7E776
:1031B000DFF838E001609EF8003086619E42A0F89A
:1031C0001480C0F80C9041608160D6DA42F8265035
:1031D000D9F80000A9E742F82650D5E70020BDE85D
:1031E000F88300BF745402207C0100206D5402203B
:1031F000FFF710BA00283DD070B48469012C03DDBC
:103200000123184670BC70471F4B1A78944221DA8C
:103210001E4D55F824300BB932E013465A68002A87
:10322000FBD1C268116802E01B68002BE8D0DA68A5
:1032300012689142F8DB10D05A68F2B11060426017
:10324000984214BF1A4600225860002302601846B4
:1032500070BC7047621C1A70DAE7828A012AEBD1CF
:1032600004E0D668134632689142E5DC1A68002A09
:10327000F7D1E1E701231846704745F82400DFE75E
:1032800045F82400BDE700BF6D54022074540220AD
:1032900000284DD02DE9F041DFF89CE0254F9EF845
:1032A0000060BC4601E028463DB384690568012CF6
:1032B000F9DCB44201DB661CF6B257F824300BB9D6
:1032C00033E013465A68002AFBD1C268116802E055
:1032D0001B68002BE7D0DA6812688A42F8DC10D04D
:1032E0005A68A2B110604260984214BF1A46002288
:1032F000586002602846002DD7D18EF80060BDE8E6
:10330000F081828A012A0CD05A68002AEAD147F853
:103310002400E9E7D2F80C801346D8F800208A424E
:10332000DEDB1A68002AF5D1DAE74CF82400BAE7A8
:10333000704700BF745402206D5402200F4A816907
:1033400052F8213098420AD042680AB103681360EB
:10335000036803B15A600023036043607047036849
:1033600042F821302BB100225A604268002AEED187
:10337000F0E74268002AEAD1EDE700BF745402206A
:103380000020704701280EDC084B53F8200058B18C
:10339000C3681B681BB908E0C3681B6823B10068D9
:1033A0000028F9D1704700207047704774540220FC
:1033B00000B970472DE9F04182B01E4615460C4613
:1033C0000746FFF753FB02AB026843F8040D1846AB
:1033D000D2F80080FFF79EFC33462A462146384645
:1033E000C04702B0BDE8F0812DE9F843074610F070
:1033F0008FFCDFF86C90074410F08AFCDFF86480E3
:103400003E1A002E22DD00F057FBD9F800309E4214
:10341000A8BF1E4600F0BAFDD8F80040FFF71EFB1B
:10342000B4B1254603F058F9013DFBD1304610F008
:103430006BFC00F0ABFD013CFBD1FFF763FC03F03C
:103440004BF910F065FC3E1A002EDCDCBDE8F88379
:10345000304610F059FCFFF755FC03F03DF9F0E75A
:1034600088010020805102202DE9F04F4A4D83B0A1
:10347000044600F08BFD00F02FFC2B680646B3F9E4
:10348000228000F079FC2B681FFA80F99A8CC9EB36
:10349000020212B29A84217800294FD0B6B22F4688
:1034A00047F6FF71204604F0FFF8014683462046A8
:1034B00004F0BAF829688B8D03F00303012B5AD06E
:1034C000022B5CD01FFA80FA4FF0000E4B8C0AF1F1
:1034D000FF3CB1F92420CEEB0303ADF80220013A02
:1034E0009BB2B0186A460FFA83FE6344ADF806003B
:1034F0002046A1F822E05946ADF800E0ADF80430CE
:1035000003F088FB2B682046BDF8022059469A84B8
:1035100002F0B8FF235C04440A2B1BD00D2B19D0FA
:10352000BDF800003B688244A3F822A022781AB1BB
:1035300062780134002AB3D1B3F92420998D9144E3
:1035400021F00302A3F824909A8503F0C5F803B094
:10355000BDE8F08F2B689A8D02F00302013A012A30
:1035600016D8A3F8228022780A2AE0D19A8C324415
:103570009A842278DBE71FFA80FEF246A6E700284D
:1035800003461FFA80FAB8BF431CC3F34F0E9DE7F2
:103590001A8C5A84E7E700BF7C01002070B50E4604
:1035A0001546044600F0F2FC054B1B685E849D84C2
:1035B00014B12046FFF758FFBDE8704003F08CB807
:1035C0007C01002020B3F0B50C4683B005461646BA
:1035D00000F0DCFCD4B1204608F066FB074638B1A9
:1035E00002462146684604F0D7F8684608F05CFBBE
:1035F0003246214647F6FF73284603F06DFB3846F6
:1036000008F052FB03F068F803B0F0BD2746EFE77F
:10361000704700BF08B100F001B870472DE9F04FC6
:1036200089468BB01546044603921F4600F0AEFC57
:10363000B9F90030B9F904100193CE1AB9F906307E
:103640000291B9F902B00136059300F045FB15F07F
:103650000C0A049076D11FFA80FA484608F024FB41
:1036600002460490A8B10199002506A82B4661F3F3
:103670000F0502996BF31F4561F30F03059906953A
:1036800061F31F434946079304F086F806A808F043
:103690000BFB039B1FFA8BF503F003080AF1FF33C2
:1036A00003934346B0461E4615E0022E34D01EB9A1
:1036B000B9F80030ADF820302046594608AA5544E4
:1036C00003F0A8FA20463A46414604F03FFA044483
:1036D000ADB2237873B33A464146204604F098FAD7
:1036E000BDF80420039B8346ADF820202046EB184C
:1036F000BDF808205946ADF82250ADF82420ADF8A9
:10370000263003F091FF012ECFD1B9F804300133F8
:10371000181AADF82000CFE7B9F90010B9F9043054
:103720005B1A181A013048BF013001EB6000ADF898
:103730002000C1E7049808F0B7FA02F0CDFF0BB003
:10374000BDE8F08F254600F021FC3A463146284678
:103750004FF0000804F0FAF948B105443A46314602
:1037600008F10108284604F0F1F90028F5D102F02B
:10377000B3FFBAF1080F08D0BAF10C0F10D0BAF1AC
:10378000040F02D0BDF810A067E7BDF810A0059B9C
:1037900018FB0AF85D1CC8EB05050FFA85FB5CE712
:1037A000059B049ACBEB0303BDF810A0013308FB83
:1037B0001238B8F1000FB8BF08F101080BEB68052B
:1037C0000FFA85FB49E700BF2DE9F04F91B0804625
:1037D0001E460F46914600F0D9FB674B0EA81C68A9
:1037E000E56C246D05EB080305EB0902E11934448F
:1037F0000793089202910194ADF83830ADF83C205F
:10380000ADF83A10ADF83E4008F0ECFD002800F0AD
:103810009780019B029A1A99C2EB030B9DF86820CE
:10382000C1F307241B99BBF1000F5B46C1F30727C7
:103830001A99B8BF0BF101030BFB02FEC1F307405D
:103840001B995B109DF86CC0C1F307461A9903EBF6
:103850000E05090E0A950BFB04353C1B03940BFB6C
:103860000034301A0BFB01335E460B950D931B9B06
:103870000C94C1EB136304900593C2EB0C03069305
:1038800000F008FA1A9B1B9A0990934269D0002E07
:1038900052D0029D019A95425BDC0AAF86464FF0FA
:1038A000010B97E8800706E00BF1010B0135019B46
:1038B000A646AB422FDB70469AFBF6F499FBF6F175
:1038C00097FBF6F398FBF6FC2206059C43EA0C23D3
:1038D000A24442EA0144049A1C43029B9144069A82
:1038E000AB421744039A9044E0DA7445DCD005F00B
:1038F0008FFBBBF1010FCBEB050105F1FF33089AFC
:10390000079822D004F0FEFE0135019B4FF0010B19
:10391000A646AB42CFDA204605F07AFBBBF1010F99
:1039200019D0019B089ACBEB03010798013104F0F1
:10393000E9FE099805F06CFB08F0E6FB00289FD132
:1039400002F0CAFE11B0BDE8F08F691E04F058FE07
:10395000ACE705F05DFB089A0199079804F050FE6A
:10396000E7E7184605F054FB019B089A029907986F
:1039700004F0C8FEDDE700BF7C010020F0B5144F65
:1039800083B006460D46144600F000FB3B686846CF
:10399000196DDA6C0E441544144433B2ADF800507E
:1039A000ADF80440ADF80230ADF8063008F01AFD6D
:1039B00050B13B682246314628465B6E1B689847EB
:1039C00008F0A2FB0028F4D102F086FE03B0F0BD9F
:1039D0007C0100202DE9F04782B0044689469246DA
:1039E000984600F0D3FA1E4B68461F683E7EFD6C79
:1039F000013E3F6D2C445544B2B2B944B844A61AB6
:103A00005119C2EB09034244ADF80060ADF804104F
:103A1000ADF80230ADF8062008F0E4FCD8B109F1A9
:103A2000010708F1FF362A464946204604F0E8FD22
:103A30002A464146204604F0E3FD324639462046F8
:103A400004F038FE32463946284604F033FE08F0CA
:103A50005BFB0028E7D102F03FFE02B0BDE8F08733
:103A60007C01002070B582B0064614460D4600F079
:103A70008DFA104B68461A68D36C126D1E441544BB
:103A8000144433B2ADF80250ADF80640ADF8003042
:103A9000ADF8043008F0A6FC40B122462946304675
:103AA00004F008FE08F030FB0028F6D102F014FE06
:103AB00002B070BD7C0100202DE9F0410025124FBD
:103AC000124EDFF84C803C681CB1A047041C18BFA4
:103AD000012406F00DFC3368002818BF01244BB107
:103AE000984738B1D8F8003013B1012498473CB159
:103AF0000125E8E7D8F80030002BF7D1002CF7D1EA
:103B00002846BDE8F08100BF985402209C54022052
:103B100094540220F0B583B0074616461C460D4665
:103B200000F034FA104B68461B68DA6C1B6D1744C2
:103B300016441D441C44ADF80070ADF80460ADF8A7
:103B40000250ADF8064008F04DFC48B1234632461D
:103B50002946384604F0D6FD08F0D6FA0028F5D1FB
:103B600002F0BAFD03B0F0BD7C010020002850D067
:103B7000C388013B10B5848880681F2B47D8DFE8D5
:103B800003F0162346314646463C464646464646E0
:103B900046404646464646464646464646464646CB
:103BA0004610A31002FB031150F8210010BD02FBC8
:103BB00004F200EBD104C843A35C00F0070023FA31
:103BC00000F000F0010010BD02FB04F200EB9104D4
:103BD0006FEA4100A35C00F0060023FA00F000F059
:103BE000030010BD02FB04F200EB5104CB07A05C04
:103BF0004CBF00F00F00000910BD02FB0404605C24
:103C000010BD631002FB031130F8110010BD00203D
:103C100010BD7047034B082153F82000C3689B6A0E
:103C2000184700BF7454022010B500F0AFF904F03B
:103C3000A9FD04F077FF044602F04EFD204610BDBA
:103C400010B5044600F0A2F9054B002120461B6880
:103C5000DB695B689847044602F03EFD204610BDD4
:103C60007C01002038B504460D4600F08FF9064B64
:103C7000294620461B68DB695B689847044602F0CA
:103C80002BFD204638BD00BF7C01002008B106F0A6
:103C900091BC704710B500F079F904F07BFD04F099
:103CA00041FF044602F018FD204610BD012801D94D
:103CB00000207047014B53F82000704764510220E8
:103CC00010B500F063F9034B1B681C7C02F004FD87
:103CD000204610BD7C01002010B500F057F9044BC0
:103CE0001B68DB695C7E02F0F7FC204610BD00BF5C
:103CF0007C01002070B504460E46154600F046F9DA
:103D0000204631462A4604F0E3FD044610B1002364
:103D100033602B6002F0E0FC204670BD38B50546EC
:103D20000C4600F033F9064A064BB2F90020B3F90D
:103D300000302A602360BDE8384002F0CDBC00BFEF
:103D40005E5402206054022010B5044603F0D4FCF7
:103D500001462046BDE8104003F066BC0FF0D8BF16
:103D6000044B3422352061219A701870184619715D
:103D7000DA7070476401002010B500F007F90F4BAE
:103D80001A68938D03F00C03082B08D00C2B06D077
:103D9000042B0BD0002402F09FFC204610BDD369F9
:103DA0001C7E02F099FC6408204610BDD3691C7E7D
:103DB00002F092FC013C204610BD00BF7C010020B7
:103DC000024B53F820301B69186870477454022066
:103DD000024B53F820301B69586870477454022016
:103DE00038B505460C4600F0D1F8044B1B685D84DD
:103DF0009C8402F071FC002038BD00BF7C010020D3
:103E000090B583B000AF544A534B1B6823F00103B5
:103E10001360524B1B68C3F30A0340F249429342BA
:103E20000CBF01230023DAB24C4B1B68C3F30A0317
:103E300040F251418B420CBF01230023DBB21343FC
:103E4000DBB21946454B1B68C3F30A0340F25242EA
:103E500093420CBF01230023DBB20B43002B10D095
:103E60003F4B01221A6000BF3D4B1B68002BFBD16A
:103E70003C4B3D4A1A603B4B1B683C4A934218D06E
:103E8000FEE73B4B1B68C3F30A03B3F58A6F10D1FF
:103E9000384B01221A6000BF364B1B68002BFBD148
:103EA000354B314A1A60344B1B68304A934200D07C
:103EB000FEE702F06DFE314B2E221A700FF02AFF42
:103EC0002F480DF065FA0FF09BF9786004F07AFD49
:103ED0000346002B0CBF01230023DCB204F0B8FD25
:103EE0000346002B0CBF01230023DBB22343DBB2CC
:103EF000002B09D004F07CFD044604F0BFFD03460E
:103F00001946204605F0B0F80021002002F0D2F852
:103F100006F03AFFFEF77AFA1A4B1B68002B12D014
:103F20000DE0184B1B681B68002B03D0154B1B685A
:103F30001B689847134B1B685B68124A1360114B50
:103F40001B68002BEDD1104B01221A707B681846BC
:103F50000C37BD4690BD00BF002000E0002004E00B
:103F60000830024000300240C2A507F4CDB5E8B5E4
:103F70000010005C084C0258004C02585C540220AF
:103F80009C500220145102206C5402202DE9F04173
:103F9000224D6B6823B10FF0B9FEAB68984204D094
:103FA0000FF0CCFE0FF0B2FEA8606B680133012B5E
:103FB0006B6001D0BDE8F081194F3B68002B28DD14
:103FC0000024264605E03AB301363B687C349E4225
:103FD0001FDA0FF09BFE2B681A5923449042F2D14E
:103FE0007B68B342E6D0002B10DBC3EB43132A6897
:103FF00002EB8308FFF7C4F92A680A4B1444C8F897
:104000007800221DA06F1A60FFF742F97E60BDE8BC
:10401000F08100242646E3E71860E1E77C510220A6
:10402000800100207C01002010B582B028B9134B1C
:104030001B681C6E14B902B010BD0446FFF7A6FF42
:104040002046FEF713FD02AB446943F8080D1846FD
:10405000FEF760FE1CB902F03FFB02B010BD204627
:1040600002ACFEF703FD826844F8040D936898479C
:104070002046FEF74FFE02F02FFBEEE77C0100200A
:1040800000B97047014A114600F002B801F0FFFF85
:104090002DE9F047DFF8F88084B00C461546064657
:1040A000FFF774FF002001F0C5FFD8F8003081460B
:1040B00030461F6EFEF7DAFC03680090986901F045
:1040C00081FF324B82469C42009B53D01A895B8908
:1040D000013AADF80840013BADF80A5022442B44A8
:1040E000ADF80C20ADF80E3005F00CFE6846FEF77A
:1040F00011FE02A808F076F948BB504601F062FFB5
:10410000FFF744FF002F3DD0D8F800301B6EB3BB43
:1041100005F088FF3846FEF7A9FC04ACD8F800305B
:1041200044F80C0D1F660068FFF764F82046FEF7A0
:10413000F1FD05F04BF804F05DFF02F0CDFA4846C2
:1041400001F078FF02F0C8FA04B0BDE8F0872A4613
:104150002146304600F094FD07F0D6FF0028CCD071
:104160002A462146304600F08BFD07F0CDFF00289F
:10417000EDD1C2E7B3F90440B3F90650A6E701F068
:1041800013FFC5E701F010FFD7E700BF01F0FFFF05
:104190007C0100202DE9F04385B006469046994603
:1041A0000F46FFF7F3FE1C4A1C4B1268507C53F875
:1041B000204001E024682CB3E3681A68042AF9D18E
:1041C000DB6A012120469847054608B32469A368A5
:1041D0009847134A01304B460195394606BF1446AD
:1041E0004FF0010E4FF0000E424602943046CDF8DB
:1041F00000E000F0C1FB044602F06EFA204605B074
:10420000BDE8F083FFF7BEF8044618B1C368D7E7EE
:104210000446F1E72046F2E77C01002074540220B6
:10422000602903082DE9F04385B00646904699467B
:104230000F46FFF7ABFE1C4A1C4B1268507C53F82C
:10424000204001E02468FCB1E3681A68042AF9D12F
:10425000DB6A0121204698470546D8B12469A36846
:104260009847013018D00C994B4602944246009171
:1042700030460195394600F07FFB044602F02CFAE7
:10428000204605B0BDE8F083FFF77CF8044648B14E
:10429000C368DDE70446F1E70C9B054C43F00103DE
:1042A0000C93E0E72046ECE77C01002074540220E8
:1042B000602903082DE9F04184B00C9C9CB198461C
:1042C00017460E460546FFF761FE0B9B0A9A3146DC
:1042D000029428460193434600923A4600F04CFB74
:1042E000044602F0F9F9204604B0BDE8F08100BFB1
:1042F00000B9704710B582B00446FFF747FE104B77
:104300001B681B6E9C4217D02046FEF7AFFB43692B
:10431000019063B90068FEF76BFF01A8FEF7FAFC95
:104320002046FEF757F902F0D7F902B010BD184643
:1043300002F0B8F90198EDE701F036FEE4E700BFBE
:104340007C0100202DE9F04F87B0044692461D46BF
:104350008946FFF71BFE574B1A68574B577CDB57B4
:104360003846012B40F39A8004F032FB064638466B
:1043700004F074FB0746002C00F08D8005A904A80A
:10438000FFF7CCFC049A059B1644B4F900201F44A7
:10439000B4F9023022EAE272013E23EAE373013FFC
:1043A000114602921846B4F9042003939642D4BFF2
:1043B000C1EB0601C1EB0201B4F9063002460E461C
:1043C0009F42D4BFC2EB0702C2EB0302013617467D
:1043D000013705B97D42002E4FDD002F4DDD109BCA
:1043E0003246039900932B460298FFF71BFF804645
:1043F000002848D000F0DCF88742064604D02D4B58
:104400001B68986C002851D140463D460024DFF8D7
:10441000ACB000F0D9F90EE0AD1BACB95046344455
:10442000C847DBF80030FF2003B198474046FFF74C
:1044300027FEA74212DDAE42EEDD2946404600F0DF
:10444000A3F9AD1B002CE9D0039B404602991A1931
:1044500000F0EAF94046FFF7E7FDDFE74046FFF7E7
:1044600047FF002000F0B0F9B74206D0114B1B689F
:10447000986C10B1332108F003FD02F02DF90020F3
:1044800007B0BDE8F08F5046C84702F025F901207B
:1044900007B0BDE8F08F039402949AE704F042FA63
:1044A0000646384604F068FA074664E7322108F009
:1044B000E7FCA9E77C01002070540220F45202209E
:1044C00030B5044683B098B1FFF760FD2046FEF793
:1044D000CDFA036802AD1B6945F8040D9B68984747
:1044E00004F094FF04462846FEF714FC02F0F4F8AA
:1044F000204603B030BD00BFA0B110B5044682B065
:10450000FFF744FD2046FEF7B1FA02AB00F11804B4
:1045100043F8040D1846FEF7FDFB02F0DDF82046D7
:1045200002B010BD704700BF10B5044682B0FFF75F
:104530002DFD7CB12046FEF799FA02ABB0F904409C
:1045400043F8040D1846FEF7E5FB02F0C5F82046D7
:1045500002B010BD044B1B681C6E002CEAD102F0A7
:10456000BBF8204602B010BD7C01002010B5044607
:1045700082B0FFF70BFD7CB12046FEF777FA02AB65
:10458000B0F9064043F8040D1846FEF7C3FB02F0ED
:10459000A3F8204602B010BD044B1B681C6E002C13
:1045A000EAD102F099F8204602B010BD7C0100204B
:1045B00010B5044682B0FFF7E9FC7CB12046FEF757
:1045C00055FA02ABB0F90A4043F8040D1846FEF75D
:1045D000A1FB02F081F8204602B010BD044B1B681D
:1045E0001C6E002CEAD102F077F8204602B010BD14
:1045F0007C0100202DE9F04F804687B0002758E06D
:10460000002E7ED106F00CF8804500F09A80584BC1
:1046100001264946224602935846564B009601937E
:104620002B4600F0A9F981464046FEF71FFA0346E3
:104630000590C0F82490B9F1000F79D0826A05A8DE
:10464000DFF840B142F480329A62FEF763FB4846DD
:1046500000F0BAF882463046474E02F095F84846D8
:10466000FFF74AFF454B05FB04F2454C19789200D1
:104670003568A84740462568CBF8008006F094F8D6
:104680002060404608F0C4FA002225601046CBF8AE
:10469000002002F079F8504600F096F84046FEF708
:1046A00053FB406AB0FA80F35B090137042F22DC28
:1046B0000BB34046FEF7DAF9034605A8B3F900B09C
:1046C000B3F90290B3F90440B3F90650CBEB0404FC
:1046D0000593C9EB05055E6A0134FEF71BFB013546
:1046E000002DC8BF002CD4BF0123002388DC013774
:1046F0000020042FDCDD08B100F0D2F807B0BDE8DF
:10470000F08F3046FEF7B2F9034606A8B3F906501B
:1047100040F8083DB3F90440FEF7FCFAA94501D181
:10472000A345BBD04A465946304600F07DF8B5E770
:1047300005A8FEF7EFFA404608F06AFA3346484605
:10474000B3E704F029F9064604F06CF9B44202DC40
:1047500085427FF75CAFB442A8BF34468542A8BF0C
:104760000546214640462A4607F06CFA4FE700BF4F
:1047700060290308F4A0030898010020F8520220E1
:1047800094530220206D022030B50D4683B028B925
:104790000C4B1B681C6E14B903B030BD0446FFF708
:1047A000F5FB2046FEF762F9B0F90A300190AB4202
:1047B000C8BF458101A8FEF7ADFA01F08DFF03B037
:1047C00030BD00BF7C010020F0B5164F83B0044619
:1047D000FFF7DCFB3B681E6EE4B1C6B905F022FCB6
:1047E0002046FEF743F902AD3B6845F8040D1C6610
:1047F0000068FEF7FFFC2846FEF78CFA04F0E6FCA2
:1048000004F0F8FB01F068FF304603B0F0BD01F0A2
:10481000CBFBE3E701F0C8FB01F05EFF304603B0DD
:10482000F0BD00BF7C01002070B50D4682B0164679
:1048300028B91A4B1B681C6E14B902B070BD04462F
:1048400036B22DB2FFF7A2FB2046FEF70FF9C68065
:104850008580009004F0CEFB009B586930B9684613
:10486000FEF758FA01F038FF02B070BDFEF7FEF80F
:10487000009B0190B3F90820B3F90A308280C3800D
:1048800013B10AB10580468001A8FEF743FA6846D5
:10489000FEF740FA01F020FFE6E700BF7C010020B0
:1048A00000B9704770B5044684B0FFF76FFB20462F
:1048B000FEF7DCF8014601A8B1F90460B1F9065031
:1048C0000A894B89324401912B44ADF80860013AC2
:1048D000ADF80A50013BADF80C20ADF80E30FEF7F4
:1048E00019FA02A807F07EFD40B12A46314620465B
:1048F00000F0A8F907F008FC0028F6D101F0ECFE62
:1049000004B070BD00B9704770B5044684B00D4660
:104910001646FFF73BFB2046FEF7A8F8154A03466C
:104920000190954221D01A8901A85B89013AADF81E
:104930000850013BADF80A602A443344ADF80C201E
:10494000ADF80E30FEF7E6F902A807F04BFD40B1D6
:1049500032462946204600F075F907F0D5FB0028BD
:10496000F6D101F0B9FE04B070BDB0F90450B0F951
:104970000660D8E701F0FFFF2DE9F04FDFF82C814A
:1049800087B082468B46D8F8000017461E4612991B
:10499000437C00221198FEF765FB00284DD0036987
:1049A00005469B68984704F031FD00FB07F48146FB
:1049B000FEF7F0F8109B073413F001034FEAD4041C
:1049C0003FD0002E2CDD002B42D004FB06F0183027
:1049D000FDF7A8FD024668B3002302931046039238
:1049E000FEF744F8029A034606A8A3F804A0A3F829
:1049F00006B01F815E81DC60C3F810905A6140F8F8
:104A0000043D1D60FEF786F9129AD8F800302A613D
:104A1000039A1046AA605B7CAB6107B0BDE8F08FDB
:104A2000002C34D1204676428642A8BF064693B376
:104A3000002ECADC2846FEF7DBFB002007B0BDE8ED
:104A4000F08F0028B8BF0330801000EB4000B8E7BB
:104A500000933A4633465946504601F093FD029082
:104A600004FB06F01830FDF76BFD02460028B5D1B7
:104A700028460392FEF7BCFB029B002BDDD01846B4
:104A8000FDF7A8FD039A104607B0BDE8F08F18386F
:104A9000B0FBF4F0C7E700933A4633465946504618
:104AA00001F070FD002E0290DADCC3E77C010020EB
:104AB0002DE9F04FDFF880918BB05D4BD9F800C045
:104AC000DFF878819CF811E053F82E40D8F80030D8
:104AD000D4F810E0002B00F0A6801646DCF8602029
:104AE00007460D46002A75D0E2681268072A78D07A
:104AF000504AC2EB0E02B2FA82F25209002A70D07A
:104B00003846FDF7B3FF03460AA8B3F908B040F8EA
:104B1000083DB3F90AA00BEB0504DB68013C0593E3
:104B2000FEF7F8F8D9F80010B1F90C30B1F9080027
:104B3000E41A002CCCBFC4EB0B045C4685425EDB60
:104B40000023002C43DD0AEB0600B1F90EE001382A
:104B5000CEEB00000028C8BFC0EB0A0AB1F90A007A
:104B6000B04247DC0021BAF1000F079306912EDD19
:104B70003846FFF7C1FC079BD9F80020069901FBD6
:104B80000B31136E00EB8107002B3CD01846FDF76C
:104B90006DFF02460AA8B2F90410B2F906306D1A88
:104BA00040F8042DF31AA900D56801F1180605FB99
:104BB00003661644FEF7AEF84EB1059B22460095FB
:104BC0003946019330465346D8F80040A0470BB011
:104BD000BDE8F08FE2681268B2FA82F25209002A48
:104BE0008ED173463246294638460EF00FF90BB087
:104BF000BDE8F08F811B0646C1EB0A0AB3E7431BF1
:104C00000546E41A9DE7507C4FEA8B02DFF830E05E
:104C10003B4602922946CDF804A032460094DEF8C5
:104C20000040A047D3E773460EF0F0F8CFE700BF8F
:104C300074540220602903087C0100208054022063
:104C40007C5402202DE9F04182B00F469046064682
:104C5000FDF70CFF034602AC16211D68002044F846
:104C6000043DEB685B6A984705462046FEF752F81C
:104C70001DB1424639463046A84702B0BDE8F08132
:104C800000B970472DE9F04FA3B08B469246044619
:104C9000FDF7ECFE22AB456943F81C0D1846FEF704
:104CA00039F82046FFF70CFC0828814640DD002D2E
:104CB0003ED12046FDF7DAFE22AA0346B0F90810DD
:104CC00042F8100D10460D92B3F90A200A9109928C
:104CD0001968DA680E690B930E92FEF71BF892487A
:104CE00092490068D6F80480407C51F820100D6984
:104CF0002B680C93FEF78EFF08280B9B14D9102805
:104D00008BBF20221022042702270B92AE4200F014
:104D1000F882B9F1200F00F0B381B9F1100F00F063
:104D2000458123B0BDE8F08F082201270B92EDE703
:104D30000021012320467C4E20910DF188080B9123
:104D400021930A93FDF792FE074630683A68FB68A4
:104D5000B7F908101269139314913B69B7F90A1057
:104D6000407C0993169148F8147D5568D7F8149043
:104D7000FEF750FF32680E90507CFFF729F8074687
:104D80004046FDF7C7FF099A0A9B082A0B9940F293
:104D90009D80102A13460A918CBF042302230C9392
:104DA000BD4200F0C1813368587CFFF709F8149BBD
:104DB00006469800FDF7B6FB10900028B1D02046BB
:104DC000FFF79AFB0446B9F1000F00F088804846CF
:104DD000FDF74CFE169B1E90002B40F3A181002393
:104DE000DDF83880CDF834A00B93139BCDF848B094
:104DF000E31815931FAB19460F93836800225B6974
:104E00001F920B9A9847159B139A04469B1A0E9370
:104E1000149B834200F0F680099B012B00F08880F0
:104E2000002842D01CAB11931098FDF71FFE099B80
:104E300007461C90082B1F9A65D90C9BA3460E9918
:104E4000824602FB031939F8020BA847B047BBF1B1
:104E5000010B4AF8040BF6D1B8F11F0F04D83846FD
:104E60004246214601F0FAFC0A9901231F98224686
:104E7000059112991C9F084400210193009303910E
:104E8000CDF808800D99049703F034FA1198FDF7D6
:104E900041FF1F9B1E981C440B9A83680F991F9417
:104EA0005B69984704460028BED1159A13990B9B5D
:104EB0000A44013315920D9A0B9301320D92169A02
:104EC0009A4200F02D811E980F9996E7012A03D18E
:104ED00020AB0C920A9363E70C930A9160E70125DB
:104EE0000A9B139A099905930490584603920291DC
:104EF0005146169B149A0195009503F0FBF9109802
:104F0000FDF768FB0DE70C9BA2460E99814602FB5C
:104F1000031B1BF8010BA847B047BAF1010A49F877
:104F2000040BF6D198E700BF7C01002074540220E6
:104F30000028BAD0CDF8608019960B9F0A9EDDF844
:104F40003880DDF83490DDF848A0DDF83CB01795E6
:104F50001192DDF87CE02246119D01230EF007003E
:104F600049460395012506900AEB0E00BEF1000F9D
:104F700005960295B8BF0EF1070E0195009508EB56
:104F8000EE0ECDF810E004F033F91F9B1E983A4660
:104F90001C44594683681F945B699847044600285F
:104FA000D7D1179DDDF86080199E7EE70A9B03FB31
:104FB00007F0FDF7B7FA109000283FF4B2AEFDF706
:104FC00055FD20902046FDF751FD00F118031E907D
:104FD0000E932B69002B00F0A6817369002B00F063
:104FE000A281B0F908008000FDF79CFA119000281A
:104FF00040F0BA811F900D98FDF78CFE20A8FDF7B8
:1050000089FE7CE71098FDF731FD099B81461C90D5
:10501000082B149F0446DDF838A028D93AF8020B73
:10502000A847B047013F44F8040BF7D1B8F11F0F70
:1050300004D848464246149901F010FC22AB12985D
:105040000D991A460A9B059300230393012352F8F6
:1050500018EDCDF8088017460193149A0093CDF807
:1050600010E003F047F93846FDF754FE1DE71AF843
:10507000010BA847B047013F44F8040BF7D1D5E72F
:105080000A9B07FB03F0FDF74DFA0E9000283FF452
:1050900048AEFDF7EBFC20902046FDF7E7FC1E90A4
:1050A0002C6900F11808002C00F0EB800A9A5C468D
:1050B00001260A954FEA82099346CDF83090DDF833
:1050C000249017E0042F21D0012F15D00B9B002036
:1050D000209D51460293012305905A460390204695
:1050E00001969A440096049503F004F9B9F1010978
:1050F00000F0E880022FE5D10C9D40463B465A4621
:10510000A8440A9D20992D69A847DFE70C9B4046DB
:105110000A9D5A46984420993B462D69A847D5E7F1
:105120001EA8FDF7F7FDEAE62046FFF7E5F9804601
:10513000B9F1000F00F0D4804846FDF797FC169BAC
:105140001E90002B40F3C88000261FABCDF834A082
:105150000125B146DA461F4683683246CDF87C9079
:1051600039465B699847149B0446834231D0099BBA
:10517000012B57D020B30D9B0B9603EB060B1F980A
:1051800001230C990A9A01FB008E099E1399504441
:105190000592224603915946CDF810E002960195FA
:1051A000009503F0A7F81F9B1E9839461C440B9AE4
:1051B00083681F945B69984704460028DFD10B9EE3
:1051C000139B01369844169BB34240F385801E988A
:1051D000C2E7CDF82C80B346984600E0A3461E985F
:1051E0000BF101043946836822465B699847804584
:1051F000F4D00A9AC6EB0B03DDF82C8050460592DA
:1052000001330D9ACDF810809119139E099A0396D7
:1052100002920195149A06FB03880095264603F036
:1052200069F8D0E70028CBD00D9B0B9603EB060B5B
:10523000DDF87CE022460A9E01230EF00700594665
:10524000059606900AEB0E00BEF1000F139E029524
:10525000B8BF0EF1070E0396019508EBEE0E009510
:10526000CDF810E003F0C4FF1F9B1E9839461C4484
:105270000B9A83681F945B69984704460028D7D12E
:105280009DE7A1460125099E0123022F51460A9A56
:1052900058460AEB030E00F0A981042F00F07D812F
:1052A0009F4200F052810B9CF246CDF8149002947C
:1052B000209CCDF80C9001950095049403F01AF809
:1052C000013EE1D10D98FDF725FD20A8FDF722FD57
:1052D0000E98FDF77FF924E51EA8FDF71BFD20E5DC
:1052E00001240A9B139A0999059304905846039246
:1052F00002915146169B149A0194009402F0FAFF11
:105300000FE50E9A012418330025039251460493A9
:105310005846099BCDF808900A9A05950194009487
:1053200002F0E8FFFDE40125DDF82890099E012345
:10533000022F51464A4658460AEB030E00F0D4802D
:10534000042F00F0A0809F426DD0002401950095AD
:10535000F246059403940B9C0294209C049402F062
:10536000C9FF013EE3D146E6FDF780FB1F90002810
:105370003FF441AE0A9A0124CDF828B04FEA420921
:1053800090460C95CDF83C90B146DDF838B017E06A
:10539000042F2ED0012F28D00B9B0020209D51469A
:1053A000029301230590424603909A44019400948D
:1053B0000A98049502F09EFF099B013B09932BD0AC
:1053C000022FE5D1209B1E463B4642461F99584678
:1053D000D9F81450A8470F9D31463B46AB440C9D6D
:1053E00042461F982D69A847D6E7209B1E460223F8
:1053F000EBE7209B42460F9E58461D461F9902230D
:10540000B344D9F81460B04729460C9D3B46424648
:105410001F982D69A847BFE71FA8FDF77BFC1198CF
:10542000FDF7D8F8E7E50A9B444609965D000C9E17
:105430000C95209DDDF83880DDF8289038F8020BB7
:10544000A047B047B9F1010905F8010BF6D10E9D4F
:1054500001230B985146AE460C9D02905846AE442F
:10546000209DCDF814909A440A9ACDF80C9001979B
:1054700000970495CDF838E002F03CFF099B013B12
:105480000993D6D1B7E50A9B0125099644465E00EB
:105490000C9F0C96209EDDF83880DDF8289038F8B7
:1054A000020BA047B847B9F1010946F8040BF6D141
:1054B0000E9E01230B985146B6460C9E029058460C
:1054C000B644209ECDF814909A440A9ACDF80C90D8
:1054D000019500950496CDF838E002F00BFF099B8A
:1054E000013B0993D6D186E50A9B012509964446DE
:1054F0005E000C9F0C96209EDDF83880DDF8289029
:1055000038F8020BA047B847B9F1010926F8020B99
:10551000F6D10E9E01230B985146B6460C9E029082
:105520005846B644209ECDF814909A440A9ACDF875
:105530000C90019500950496CDF838E002F0DAFE63
:10554000099B013B0993D6D155E595000C9C099622
:105550000C95209D4646DDF8289056F8040BA04790
:10556000B9F1010905F8010BF7D10B980123209E31
:10557000514602905846CDF814909A440A9ACDF8B4
:105580000C900197009704960C9D02F0B3FE099BC6
:10559000A844013B0993DCD194E6099601259600C5
:1055A0000C9C0C96209E4746DDF8289057F8040B7B
:1055B000A047B9F1010946F8040BF7D10B98012374
:1055C000209F514602905846CDF814909A440A9A6A
:1055D000CDF80C900195009504970C9E02F08AFE80
:1055E000099BB044013B0993DCD16BE60996012588
:1055F00096000C9C0C96209E4746DDF8289057F8A4
:10560000040BA047B9F1010926F8020BF7D10B985A
:105610000123209F514602905846CDF814909A4499
:105620000A9ACDF80C900195009504970C9E02F013
:1056300061FE099BB044013B0993DCD142E600BF07
:10564000094B1A6A002A18BF002003EB800210B42D
:105650009469002C04DB4FF0FF3443F82010946170
:105660005DF8044B704700BF3851022058B311B3A6
:105670000AB3B1F90030F0B5B2F90050B2F902E066
:10568000B1F902409D42B2F90470B2F90660A8BFB8
:105690001D46B1F904207445B1F90630A8BF74461F
:1056A000BA420580B8BF3A46B3424480B8BF3346D9
:1056B0008280C380F0BD002908BF11460A684B688C
:1056C000026043607047704778B189B2C38892B274
:1056D00070B40688448885880E4414441A442944CA
:1056E000068044808180C28070BC704770B4124DC7
:1056F00004462B686A6893420FD0104EB34293E879
:10570000070014BF0C333C3B84E807002B60207A71
:10571000003070BC18BF01207047094A934204D082
:1057200013E9070084E80700F1E73C3393E807003A
:1057300084E80700EBE700BF1C020020945202201F
:1057400058520220034B09CBC01AB0FA80F040092E
:10575000704700BF1C020020F0B53C4E85B00446E7
:10576000336D002B55D03A4A01AD3A49F36C1160C4
:1057700094E8070085E807000BB128469847364FA4
:105780003C687B689C4232D0B342304A32D09DF8AC
:105790000C00A3F10C0113F804EC8C46864535D1BE
:1057A0008C4233D091423BD002F13C0E11F8042CD4
:1057B00082423DD0734595E8070083E807000BD08F
:1057C0000C339C427B600BD0B36C0BB128469847DE
:1057D00000F0A0FC05B0F0BD1C4B9C427B60F3D1F7
:1057E0001E4B9C4214BF0C343C3C3C60ECE7DFF8A1
:1057F0006CE0DFE79DF80C0096F8442082421DD152
:1058000006F13C0E744519D07146CFE702F13C0E0B
:10581000D0E7134B304640F8503F02F017F9A2E7AB
:1058200091F8442001F13C0E8242C3D16346C1E7A6
:10583000B34208D0A3F10C0C6346BBE795E8070020
:1058400086E80700BCE7054BB4E700BF58520220CA
:105850002C6D02203DA800081C020020945202205A
:105860002519010810B5FEF791FB0D4A1368516820
:105870008B420FD00B4CA3424FF0010493E803007E
:1058800014BF0833503B136005F042FF00F024FFC3
:10589000204610BD002400F01FFF204610BD00BFB1
:1058A000140200204C520220F0B5164C059F2568CA
:1058B000069CB5F908E0B5F90C607045B8BF7046B4
:1058C000B242A8BF324690421ADCB5F90A60B5F977
:1058D0000E50B142B8BF3146AB42A8BF2B468B42F7
:1058E00003DAF0BD25682DB12C46E5682D6835F04A
:1058F0000405F7D106940597BDE8F04003F01CBA03
:10590000F0BD00BF7C010020B0F90220B1F90630E3
:105910009A4214DCB1F90220B0F906309A420EDC4A
:10592000B0F90020B1F904309A4208DCB0F9040063
:10593000B1F900308342CCBF002001207047002025
:10594000704700BF08B5034B014674221868FAF788
:10595000EAFC08BD7C01002000B970472DE9F04F3A
:105960000446ABB00D4616461C921B91FEF70EFB8B
:105970002046FDF77BF8B0F9043004689D4227907B
:10598000119400F05A810020FEF71EFFAE4B119AD1
:105990001B689269597C1F900846279D1992824284
:1059A000209118BF5A74B5F90430B5F9062019468C
:1059B0000793B5F90830104612925B1AB5F90A2020
:1059C0001C46121A08931646139222462B8A01325D
:1059D0009B071A92324602F101021D9240F10E819C
:1059E0001B9B6A695B1A0392002B1C9A1493A2EB0F
:1059F000000440F3A78109934FF0010B0023DDF869
:105A000068901093002C40F3A8811D9B4FF0000A72
:105A10001794169301231593119E8C4BB0691B5656
:105A2000012B40F389810023ADF8A230ADF8A030FE
:105A300002F0CEFF431EB069ADF8A43003F00EF8BB
:105A40000138ADF8A60027985A4600F1140108F075
:105A500095F92190002800F0D08027985A4600F14F
:105A6000140108F08BF92390002800F0C180279BD7
:105A7000D868002840F08181169A524500F0B48021
:105A80001A9B10999A00CDF810900AFB0313C4EBEF
:105A90000A01D946229005EB83030D9115990E93C7
:105AA000129B01FB02F223441E9218934FEA8B03D0
:105AB000D3460593179B139A5B45109CCCBF0023DC
:105AC00001235A45B8BF00230B93129B5B440F93ED
:105AD000189B5B440A93049B1A46A24275D0149803
